{
  "contractName": "Storage",
  "abi": [
    {
      "constant": true,
      "inputs": [],
      "name": "_initialized",
      "outputs": [
        {
          "name": "",
          "type": "bool"
        }
      ],
      "payable": false,
      "stateMutability": "view",
      "type": "function"
    },
    {
      "constant": true,
      "inputs": [],
      "name": "owner",
      "outputs": [
        {
          "name": "",
          "type": "address"
        }
      ],
      "payable": false,
      "stateMutability": "view",
      "type": "function"
    }
  ],
  "bytecode": "0x608060405234801561001057600080fd5b50610121806100206000396000f3fe6080604052348015600f57600080fd5b5060043610604f576000357c0100000000000000000000000000000000000000000000000000000000900480633072cf601460545780638da5cb5b146074575b600080fd5b605a60bc565b604051808215151515815260200191505060405180910390f35b607a60cf565b604051808273ffffffffffffffffffffffffffffffffffffffff1673ffffffffffffffffffffffffffffffffffffffff16815260200191505060405180910390f35b600560149054906101000a900460ff1681565b600560009054906101000a900473ffffffffffffffffffffffffffffffffffffffff168156fea165627a7a72305820416511188e13be99dfff3b2b315efd4cc27da37623450605c1bab37ace2238d90029",
  "source": "pragma solidity 0.5.2;\n\ncontract Storage {\n  mapping (string => uint256) _uintStorage;\n  mapping (string => address) _addressStorage;\n  mapping (string => bool) _boolStorage;\n  mapping (string => string) _stringStorage;\n  mapping (string => bytes4) _bytesStorage;\n  address public owner;\n  bool public _initialized;\n}\n",
  "sourcePath": "/Users/admin/Documents/Github/proxyContract/contracts/Storage.sol",
  "compiler": {
    "name": "solc",
    "version": "0.5.2+commit.1df8f40c.Emscripten.clang"
  },
  "schemaVersion": "3.0.8",
  "updatedAt": "2019-04-26T15:47:15.922Z",
  "devdoc": {
    "methods": {}
  },
  "userdoc": {
    "methods": {}
  }
}